{
  "_format": "hh-sol-artifact-1",
  "contractName": "AMM",
  "sourceName": "contracts/Amm.sol",
  "abi": [
    {
      "inputs": [
        {
          "internalType": "contract IERC20",
          "name": "_matic",
          "type": "address"
        },
        {
          "internalType": "contract IERC20",
          "name": "_goflow",
          "type": "address"
        }
      ],
      "stateMutability": "nonpayable",
      "type": "constructor"
    },
    {
      "inputs": [
        {
          "internalType": "uint256",
          "name": "_amountMatic",
          "type": "uint256"
        }
      ],
      "name": "getEquivalentGoflowEstimate",
      "outputs": [
        {
          "internalType": "uint256",
          "name": "reqGoflow",
          "type": "uint256"
        }
      ],
      "stateMutability": "view",
      "type": "function"
    },
    {
      "inputs": [
        {
          "internalType": "uint256",
          "name": "_amountGoflow",
          "type": "uint256"
        }
      ],
      "name": "getEquivalentMaticEstimate",
      "outputs": [
        {
          "internalType": "uint256",
          "name": "reqMatic",
          "type": "uint256"
        }
      ],
      "stateMutability": "view",
      "type": "function"
    },
    {
      "inputs": [
        {
          "internalType": "address",
          "name": "user",
          "type": "address"
        }
      ],
      "name": "getMyHoldings",
      "outputs": [
        {
          "internalType": "uint256",
          "name": "maticAmount",
          "type": "uint256"
        },
        {
          "internalType": "uint256",
          "name": "goflowAmount",
          "type": "uint256"
        },
        {
          "internalType": "uint256",
          "name": "myShare",
          "type": "uint256"
        }
      ],
      "stateMutability": "view",
      "type": "function"
    },
    {
      "inputs": [],
      "name": "getPoolDetails",
      "outputs": [
        {
          "internalType": "uint256",
          "name": "maticAmount",
          "type": "uint256"
        },
        {
          "internalType": "uint256",
          "name": "goflowAmount",
          "type": "uint256"
        },
        {
          "internalType": "uint256",
          "name": "ammShares",
          "type": "uint256"
        }
      ],
      "stateMutability": "view",
      "type": "function"
    },
    {
      "inputs": [
        {
          "internalType": "uint256",
          "name": "_amountGoflow",
          "type": "uint256"
        }
      ],
      "name": "getSwapGoflowEstimate",
      "outputs": [
        {
          "internalType": "uint256",
          "name": "amountMatic",
          "type": "uint256"
        }
      ],
      "stateMutability": "view",
      "type": "function"
    },
    {
      "inputs": [
        {
          "internalType": "uint256",
          "name": "_amountMatic",
          "type": "uint256"
        }
      ],
      "name": "getSwapMaticEstimate",
      "outputs": [
        {
          "internalType": "uint256",
          "name": "amountGoflow",
          "type": "uint256"
        }
      ],
      "stateMutability": "view",
      "type": "function"
    },
    {
      "inputs": [
        {
          "internalType": "uint256",
          "name": "_share",
          "type": "uint256"
        }
      ],
      "name": "getWithdrawEstimate",
      "outputs": [
        {
          "internalType": "uint256",
          "name": "amountMatic",
          "type": "uint256"
        },
        {
          "internalType": "uint256",
          "name": "amountGoflow",
          "type": "uint256"
        }
      ],
      "stateMutability": "view",
      "type": "function"
    },
    {
      "inputs": [
        {
          "internalType": "uint256",
          "name": "_amountMatic",
          "type": "uint256"
        },
        {
          "internalType": "uint256",
          "name": "_amountGoflow",
          "type": "uint256"
        }
      ],
      "name": "provide",
      "outputs": [
        {
          "internalType": "uint256",
          "name": "share",
          "type": "uint256"
        }
      ],
      "stateMutability": "nonpayable",
      "type": "function"
    },
    {
      "inputs": [
        {
          "internalType": "uint256",
          "name": "_amountGoflow",
          "type": "uint256"
        }
      ],
      "name": "swapGoflow",
      "outputs": [
        {
          "internalType": "uint256",
          "name": "amountMatic",
          "type": "uint256"
        }
      ],
      "stateMutability": "nonpayable",
      "type": "function"
    },
    {
      "inputs": [
        {
          "internalType": "uint256",
          "name": "_amountMatic",
          "type": "uint256"
        }
      ],
      "name": "swapMatic",
      "outputs": [
        {
          "internalType": "uint256",
          "name": "amountGoflow",
          "type": "uint256"
        }
      ],
      "stateMutability": "nonpayable",
      "type": "function"
    },
    {
      "inputs": [
        {
          "internalType": "uint256",
          "name": "_share",
          "type": "uint256"
        }
      ],
      "name": "withdraw",
      "outputs": [
        {
          "internalType": "uint256",
          "name": "amountMatic",
          "type": "uint256"
        },
        {
          "internalType": "uint256",
          "name": "amountGoflow",
          "type": "uint256"
        }
      ],
      "stateMutability": "nonpayable",
      "type": "function"
    }
  ],
  "bytecode": "0x60c06040523480156200001157600080fd5b506040516200221d3803806200221d833981810160405281019062000037919062000125565b8173ffffffffffffffffffffffffffffffffffffffff1660808173ffffffffffffffffffffffffffffffffffffffff16815250508073ffffffffffffffffffffffffffffffffffffffff1660a08173ffffffffffffffffffffffffffffffffffffffff168152505050506200016c565b600080fd5b600073ffffffffffffffffffffffffffffffffffffffff82169050919050565b6000620000d982620000ac565b9050919050565b6000620000ed82620000cc565b9050919050565b620000ff81620000e0565b81146200010b57600080fd5b50565b6000815190506200011f81620000f4565b92915050565b600080604083850312156200013f576200013e620000a7565b5b60006200014f858286016200010e565b925050602062000162858286016200010e565b9150509250929050565b60805160a051612030620001ed6000396000818161053601528181610aee01528181610c8301528181610dbe015281816110870152818161134b0152611605015260008181610488015281816107e40152818161092001528181610a0c01528181610ea001528181610f570152818161129b015261155a01526120306000f3fe608060405234801561001057600080fd5b50600436106100a95760003560e01c8063c9fc4d5811610071578063c9fc4d5814610190578063e184e6cb146101c0578063e20b2547146101f0578063e8c3c54f14610220578063ed6793a514610250578063f711c4e914610280576100a9565b80632e1a7d4d146100ae578063452ff0b9146100df578063581367ac1461010f578063aca34c111461013f578063b32440411461015f575b600080fd5b6100c860048036038101906100c39190611732565b6102b2565b6040516100d692919061176e565b60405180910390f35b6100f960048036038101906100f49190611732565b6105e8565b6040516101069190611797565b60405180910390f35b61012960048036038101906101249190611732565b610650565b6040516101369190611797565b60405180910390f35b6101476106b8565b604051610156939291906117b2565b60405180910390f35b61017960048036038101906101749190611732565b6106d1565b60405161018792919061176e565b60405180910390f35b6101aa60048036038101906101a59190611732565b61079c565b6040516101b79190611797565b60405180910390f35b6101da60048036038101906101d59190611732565b610ba1565b6040516101e79190611797565b60405180910390f35b61020a60048036038101906102059190611732565b610c3b565b6040516102179190611797565b60405180910390f35b61023a600480360381019061023591906117e9565b610f53565b6040516102479190611797565b60405180910390f35b61026a60048036038101906102659190611732565b6114b9565b6040516102779190611797565b60405180910390f35b61029a60048036038101906102959190611887565b611553565b6040516102a9939291906117b2565b60405180910390f35b60008060008054116102f9576040517f08c379a00000000000000000000000000000000000000000000000000000000081526004016102f090611911565b60405180910390fd5b826000811161033d576040517f08c379a00000000000000000000000000000000000000000000000000000000081526004016103349061197d565b60405180910390fd5b600460003373ffffffffffffffffffffffffffffffffffffffff1673ffffffffffffffffffffffffffffffffffffffff168152602001908152602001600020548111156103bf576040517f08c379a00000000000000000000000000000000000000000000000000000000081526004016103b6906119e9565b60405180910390fd5b6103c8846106d1565b809350819450505083600460003373ffffffffffffffffffffffffffffffffffffffff1673ffffffffffffffffffffffffffffffffffffffff168152602001908152602001600020600082825461041f9190611a38565b92505081905550836000808282546104379190611a38565b9250508190555082600160008282546104509190611a38565b9250508190555081600260008282546104699190611a38565b925050819055506002546001546104809190611a6c565b6003819055507f000000000000000000000000000000000000000000000000000000000000000073ffffffffffffffffffffffffffffffffffffffff1663a9059cbb33856040518363ffffffff1660e01b81526004016104e1929190611ad5565b602060405180830381600087803b1580156104fb57600080fd5b505af115801561050f573d6000803e3d6000fd5b505050506040513d601f19601f820116820180604052508101906105339190611b36565b507f000000000000000000000000000000000000000000000000000000000000000073ffffffffffffffffffffffffffffffffffffffff1663a9059cbb33846040518363ffffffff1660e01b815260040161058f929190611ad5565b602060405180830381600087803b1580156105a957600080fd5b505af11580156105bd573d6000803e3d6000fd5b505050506040513d601f19601f820116820180604052508101906105e19190611b36565b5050915091565b6000806000541161062e576040517f08c379a000000000000000000000000000000000000000000000000000000000815260040161062590611911565b60405180910390fd5b6002548261063c9190611b92565b6001546106499190611a6c565b9050919050565b60008060005411610696576040517f08c379a000000000000000000000000000000000000000000000000000000000815260040161068d90611911565b60405180910390fd5b600154826106a49190611b92565b6002546106b19190611a6c565b9050919050565b6000806000600154925060025491506000549050909192565b6000806000805411610718576040517f08c379a000000000000000000000000000000000000000000000000000000000815260040161070f90611911565b60405180910390fd5b60005483111561075d576040517f08c379a000000000000000000000000000000000000000000000000000000000815260040161075490611c35565b60405180910390fd5b6000546001548461076e9190611a6c565b6107789190611b92565b91506000546002548461078b9190611a6c565b6107959190611b92565b9050915091565b600080600054116107e2576040517f08c379a00000000000000000000000000000000000000000000000000000000081526004016107d990611911565b60405180910390fd5b7f00000000000000000000000000000000000000000000000000000000000000008260008111610847576040517f08c379a000000000000000000000000000000000000000000000000000000000815260040161083e90611ca1565b60405180910390fd5b8173ffffffffffffffffffffffffffffffffffffffff166370a08231336040518263ffffffff1660e01b81526004016108809190611cc1565b60206040518083038186803b15801561089857600080fd5b505afa1580156108ac573d6000803e3d6000fd5b505050506040513d601f19601f820116820180604052508101906108d09190611cf1565b811115610912576040517f08c379a000000000000000000000000000000000000000000000000000000000815260040161090990611d6a565b60405180910390fd5b61091b84610ba1565b9250837f000000000000000000000000000000000000000000000000000000000000000073ffffffffffffffffffffffffffffffffffffffff1663dd62ed3e33306040518363ffffffff1660e01b8152600401610979929190611d8a565b60206040518083038186803b15801561099157600080fd5b505afa1580156109a5573d6000803e3d6000fd5b505050506040513d601f19601f820116820180604052508101906109c99190611cf1565b1015610a0a576040517f08c379a0000000000000000000000000000000000000000000000000000000008152600401610a0190611dff565b60405180910390fd5b7f000000000000000000000000000000000000000000000000000000000000000073ffffffffffffffffffffffffffffffffffffffff166323b872dd3330876040518463ffffffff1660e01b8152600401610a6793929190611e1f565b602060405180830381600087803b158015610a8157600080fd5b505af1158015610a95573d6000803e3d6000fd5b505050506040513d601f19601f82011682018060405250810190610ab99190611b36565b508360016000828254610acc9190611e56565b925050819055508260026000828254610ae59190611a38565b925050819055507f000000000000000000000000000000000000000000000000000000000000000073ffffffffffffffffffffffffffffffffffffffff1663a9059cbb33856040518363ffffffff1660e01b8152600401610b47929190611ad5565b602060405180830381600087803b158015610b6157600080fd5b505af1158015610b75573d6000803e3d6000fd5b505050506040513d601f19601f82011682018060405250810190610b999190611b36565b505050919050565b60008060005411610be7576040517f08c379a0000000000000000000000000000000000000000000000000000000008152600401610bde90611911565b60405180910390fd5b600082600154610bf79190611e56565b9050600081600354610c099190611b92565b905080600254610c199190611a38565b9250600254831415610c34578280610c3090611eac565b9350505b5050919050565b60008060005411610c81576040517f08c379a0000000000000000000000000000000000000000000000000000000008152600401610c7890611911565b60405180910390fd5b7f00000000000000000000000000000000000000000000000000000000000000008260008111610ce6576040517f08c379a0000000000000000000000000000000000000000000000000000000008152600401610cdd90611ca1565b60405180910390fd5b8173ffffffffffffffffffffffffffffffffffffffff166370a08231336040518263ffffffff1660e01b8152600401610d1f9190611cc1565b60206040518083038186803b158015610d3757600080fd5b505afa158015610d4b573d6000803e3d6000fd5b505050506040513d601f19601f82011682018060405250810190610d6f9190611cf1565b811115610db1576040517f08c379a0000000000000000000000000000000000000000000000000000000008152600401610da890611d6a565b60405180910390fd5b610dba846114b9565b92507f000000000000000000000000000000000000000000000000000000000000000073ffffffffffffffffffffffffffffffffffffffff166323b872dd3330876040518463ffffffff1660e01b8152600401610e1993929190611e1f565b602060405180830381600087803b158015610e3357600080fd5b505af1158015610e47573d6000803e3d6000fd5b505050506040513d601f19601f82011682018060405250810190610e6b9190611b36565b508360026000828254610e7e9190611e56565b925050819055508260016000828254610e979190611a38565b925050819055507f000000000000000000000000000000000000000000000000000000000000000073ffffffffffffffffffffffffffffffffffffffff1663a9059cbb33856040518363ffffffff1660e01b8152600401610ef9929190611ad5565b602060405180830381600087803b158015610f1357600080fd5b505af1158015610f27573d6000803e3d6000fd5b505050506040513d601f19601f82011682018060405250810190610f4b9190611b36565b505050919050565b60007f00000000000000000000000000000000000000000000000000000000000000008360008111610fba576040517f08c379a0000000000000000000000000000000000000000000000000000000008152600401610fb190611ca1565b60405180910390fd5b8173ffffffffffffffffffffffffffffffffffffffff166370a08231336040518263ffffffff1660e01b8152600401610ff39190611cc1565b60206040518083038186803b15801561100b57600080fd5b505afa15801561101f573d6000803e3d6000fd5b505050506040513d601f19601f820116820180604052508101906110439190611cf1565b811115611085576040517f08c379a000000000000000000000000000000000000000000000000000000000815260040161107c90611d6a565b60405180910390fd5b7f000000000000000000000000000000000000000000000000000000000000000084600081116110ea576040517f08c379a00000000000000000000000000000000000000000000000000000000081526004016110e190611ca1565b60405180910390fd5b8173ffffffffffffffffffffffffffffffffffffffff166370a08231336040518263ffffffff1660e01b81526004016111239190611cc1565b60206040518083038186803b15801561113b57600080fd5b505afa15801561114f573d6000803e3d6000fd5b505050506040513d601f19601f820116820180604052508101906111739190611cf1565b8111156111b5576040517f08c379a00000000000000000000000000000000000000000000000000000000081526004016111ac90611d6a565b60405180910390fd5b6000805414156111d05768056bc75e2d631000009450611256565b6000600154886111e09190611b92565b6000546111ed9190611a6c565b90506000600254886111ff9190611b92565b60005461120c9190611a6c565b9050808214611250576040517f08c379a000000000000000000000000000000000000000000000000000000000815260040161124790611f48565b60405180910390fd5b81965050505b60008511611299576040517f08c379a000000000000000000000000000000000000000000000000000000000815260040161129090611fda565b60405180910390fd5b7f000000000000000000000000000000000000000000000000000000000000000073ffffffffffffffffffffffffffffffffffffffff166323b872dd33308a6040518463ffffffff1660e01b81526004016112f693929190611e1f565b602060405180830381600087803b15801561131057600080fd5b505af1158015611324573d6000803e3d6000fd5b505050506040513d601f19601f820116820180604052508101906113489190611b36565b507f000000000000000000000000000000000000000000000000000000000000000073ffffffffffffffffffffffffffffffffffffffff166323b872dd3330896040518463ffffffff1660e01b81526004016113a693929190611e1f565b602060405180830381600087803b1580156113c057600080fd5b505af11580156113d4573d6000803e3d6000fd5b505050506040513d601f19601f820116820180604052508101906113f89190611b36565b50866001600082825461140b9190611e56565b9250508190555085600260008282546114249190611e56565b9250508190555060025460015461143b9190611a6c565b600381905550846000808282546114529190611e56565b9250508190555084600460003373ffffffffffffffffffffffffffffffffffffffff1673ffffffffffffffffffffffffffffffffffffffff16815260200190815260200160002060008282546114a89190611e56565b925050819055505050505092915050565b600080600054116114ff576040517f08c379a00000000000000000000000000000000000000000000000000000000081526004016114f690611911565b60405180910390fd5b60008260025461150f9190611e56565b90506000816003546115219190611b92565b9050806001546115319190611a38565b925060015483141561154c57828061154890611eac565b9350505b5050919050565b60008060007f000000000000000000000000000000000000000000000000000000000000000073ffffffffffffffffffffffffffffffffffffffff166370a08231856040518263ffffffff1660e01b81526004016115b19190611cc1565b60206040518083038186803b1580156115c957600080fd5b505afa1580156115dd573d6000803e3d6000fd5b505050506040513d601f19601f820116820180604052508101906116019190611cf1565b92507f000000000000000000000000000000000000000000000000000000000000000073ffffffffffffffffffffffffffffffffffffffff166370a08231856040518263ffffffff1660e01b815260040161165c9190611cc1565b60206040518083038186803b15801561167457600080fd5b505afa158015611688573d6000803e3d6000fd5b505050506040513d601f19601f820116820180604052508101906116ac9190611cf1565b9150600460008573ffffffffffffffffffffffffffffffffffffffff1673ffffffffffffffffffffffffffffffffffffffff1681526020019081526020016000205490509193909250565b600080fd5b6000819050919050565b61170f816116fc565b811461171a57600080fd5b50565b60008135905061172c81611706565b92915050565b600060208284031215611748576117476116f7565b5b60006117568482850161171d565b91505092915050565b611768816116fc565b82525050565b6000604082019050611783600083018561175f565b611790602083018461175f565b9392505050565b60006020820190506117ac600083018461175f565b92915050565b60006060820190506117c7600083018661175f565b6117d4602083018561175f565b6117e1604083018461175f565b949350505050565b60008060408385031215611800576117ff6116f7565b5b600061180e8582860161171d565b925050602061181f8582860161171d565b9150509250929050565b600073ffffffffffffffffffffffffffffffffffffffff82169050919050565b600061185482611829565b9050919050565b61186481611849565b811461186f57600080fd5b50565b6000813590506118818161185b565b92915050565b60006020828403121561189d5761189c6116f7565b5b60006118ab84828501611872565b91505092915050565b600082825260208201905092915050565b7f5a65726f204c6971756964697479000000000000000000000000000000000000600082015250565b60006118fb600e836118b4565b9150611906826118c5565b602082019050919050565b6000602082019050818103600083015261192a816118ee565b9050919050565b7f536861726520616d6f756e742063616e6e6f74206265207a65726f2100000000600082015250565b6000611967601c836118b4565b915061197282611931565b602082019050919050565b600060208201905081810360008301526119968161195a565b9050919050565b7f496e73756666696369656e7420736861726520616d6f756e7400000000000000600082015250565b60006119d36019836118b4565b91506119de8261199d565b602082019050919050565b60006020820190508181036000830152611a02816119c6565b9050919050565b7f4e487b7100000000000000000000000000000000000000000000000000000000600052601160045260246000fd5b6000611a43826116fc565b9150611a4e836116fc565b925082821015611a6157611a60611a09565b5b828203905092915050565b6000611a77826116fc565b9150611a82836116fc565b9250817fffffffffffffffffffffffffffffffffffffffffffffffffffffffffffffffff0483118215151615611abb57611aba611a09565b5b828202905092915050565b611acf81611849565b82525050565b6000604082019050611aea6000830185611ac6565b611af7602083018461175f565b9392505050565b60008115159050919050565b611b1381611afe565b8114611b1e57600080fd5b50565b600081519050611b3081611b0a565b92915050565b600060208284031215611b4c57611b4b6116f7565b5b6000611b5a84828501611b21565b91505092915050565b7f4e487b7100000000000000000000000000000000000000000000000000000000600052601260045260246000fd5b6000611b9d826116fc565b9150611ba8836116fc565b925082611bb857611bb7611b63565b5b828204905092915050565b7f53686172652073686f756c64206265206c657373207468616e20746f74616c5360008201527f6861726500000000000000000000000000000000000000000000000000000000602082015250565b6000611c1f6024836118b4565b9150611c2a82611bc3565b604082019050919050565b60006020820190508181036000830152611c4e81611c12565b9050919050565b7f416d6f756e742063616e6e6f74206265207a65726f2100000000000000000000600082015250565b6000611c8b6016836118b4565b9150611c9682611c55565b602082019050919050565b60006020820190508181036000830152611cba81611c7e565b9050919050565b6000602082019050611cd66000830184611ac6565b92915050565b600081519050611ceb81611706565b92915050565b600060208284031215611d0757611d066116f7565b5b6000611d1584828501611cdc565b91505092915050565b7f496e73756666696369656e7420616d6f756e7400000000000000000000000000600082015250565b6000611d546013836118b4565b9150611d5f82611d1e565b602082019050919050565b60006020820190508181036000830152611d8381611d47565b9050919050565b6000604082019050611d9f6000830185611ac6565b611dac6020830184611ac6565b9392505050565b7f496e73756666696369656e7420616c6c6f77616e636500000000000000000000600082015250565b6000611de96016836118b4565b9150611df482611db3565b602082019050919050565b60006020820190508181036000830152611e1881611ddc565b9050919050565b6000606082019050611e346000830186611ac6565b611e416020830185611ac6565b611e4e604083018461175f565b949350505050565b6000611e61826116fc565b9150611e6c836116fc565b9250827fffffffffffffffffffffffffffffffffffffffffffffffffffffffffffffffff03821115611ea157611ea0611a09565b5b828201905092915050565b6000611eb7826116fc565b91506000821415611ecb57611eca611a09565b5b600182039050919050565b7f4571756976616c656e742076616c7565206f6620746f6b656e73206e6f74207060008201527f726f76696465642e2e2e00000000000000000000000000000000000000000000602082015250565b6000611f32602a836118b4565b9150611f3d82611ed6565b604082019050919050565b60006020820190508181036000830152611f6181611f25565b9050919050565b7f41737365742076616c7565206c657373207468616e207468726573686f6c642060008201527f666f7220636f6e747269627574696f6e21000000000000000000000000000000602082015250565b6000611fc46031836118b4565b9150611fcf82611f68565b604082019050919050565b60006020820190508181036000830152611ff381611fb7565b905091905056fea26469706673582212206635c9c45f93177fff2a3708bc5145856b4e3ca5a466abf7f73a02501732418064736f6c63430008090033",
  "linkReferences": {},
  "deployedLinkReferences": {}
}