{
  "_format": "hh-sol-artifact-1",
  "contractName": "Forum",
  "sourceName": "contracts/Forum.sol",
  "abi": [
    {
      "inputs": [
        {
          "internalType": "address",
          "name": "_tokenAddress",
          "type": "address"
        }
      ],
      "stateMutability": "nonpayable",
      "type": "constructor"
    },
    {
      "anonymous": false,
      "inputs": [
        {
          "components": [
            {
              "internalType": "uint256",
              "name": "answerId",
              "type": "uint256"
            },
            {
              "internalType": "uint256",
              "name": "questionId",
              "type": "uint256"
            },
            {
              "internalType": "address",
              "name": "creatorAddress",
              "type": "address"
            },
            {
              "internalType": "string",
              "name": "message",
              "type": "string"
            },
            {
              "internalType": "uint256",
              "name": "timestamp",
              "type": "uint256"
            },
            {
              "internalType": "uint256",
              "name": "upvotes",
              "type": "uint256"
            }
          ],
          "indexed": false,
          "internalType": "struct Forum.Answer",
          "name": "answer",
          "type": "tuple"
        }
      ],
      "name": "AnswerAdded",
      "type": "event"
    },
    {
      "anonymous": false,
      "inputs": [
        {
          "components": [
            {
              "internalType": "uint256",
              "name": "answerId",
              "type": "uint256"
            },
            {
              "internalType": "uint256",
              "name": "questionId",
              "type": "uint256"
            },
            {
              "internalType": "address",
              "name": "creatorAddress",
              "type": "address"
            },
            {
              "internalType": "string",
              "name": "message",
              "type": "string"
            },
            {
              "internalType": "uint256",
              "name": "timestamp",
              "type": "uint256"
            },
            {
              "internalType": "uint256",
              "name": "upvotes",
              "type": "uint256"
            }
          ],
          "indexed": false,
          "internalType": "struct Forum.Answer",
          "name": "answer",
          "type": "tuple"
        }
      ],
      "name": "AnswerUpvoted",
      "type": "event"
    },
    {
      "anonymous": false,
      "inputs": [
        {
          "components": [
            {
              "internalType": "uint256",
              "name": "questionId",
              "type": "uint256"
            },
            {
              "internalType": "string",
              "name": "message",
              "type": "string"
            },
            {
              "internalType": "address",
              "name": "creatorAddress",
              "type": "address"
            },
            {
              "internalType": "uint256",
              "name": "timestamp",
              "type": "uint256"
            }
          ],
          "indexed": false,
          "internalType": "struct Forum.Question",
          "name": "question",
          "type": "tuple"
        }
      ],
      "name": "QuestionAdded",
      "type": "event"
    },
    {
      "inputs": [],
      "name": "Goflow",
      "outputs": [
        {
          "internalType": "contract IERC20",
          "name": "",
          "type": "address"
        }
      ],
      "stateMutability": "view",
      "type": "function"
    },
    {
      "inputs": [
        {
          "internalType": "uint256",
          "name": "",
          "type": "uint256"
        }
      ],
      "name": "answers",
      "outputs": [
        {
          "internalType": "uint256",
          "name": "answerId",
          "type": "uint256"
        },
        {
          "internalType": "uint256",
          "name": "questionId",
          "type": "uint256"
        },
        {
          "internalType": "address",
          "name": "creatorAddress",
          "type": "address"
        },
        {
          "internalType": "string",
          "name": "message",
          "type": "string"
        },
        {
          "internalType": "uint256",
          "name": "timestamp",
          "type": "uint256"
        },
        {
          "internalType": "uint256",
          "name": "upvotes",
          "type": "uint256"
        }
      ],
      "stateMutability": "view",
      "type": "function"
    },
    {
      "inputs": [
        {
          "internalType": "uint256",
          "name": "",
          "type": "uint256"
        },
        {
          "internalType": "uint256",
          "name": "",
          "type": "uint256"
        }
      ],
      "name": "answersPerQuestion",
      "outputs": [
        {
          "internalType": "uint256",
          "name": "",
          "type": "uint256"
        }
      ],
      "stateMutability": "view",
      "type": "function"
    },
    {
      "inputs": [
        {
          "internalType": "uint256",
          "name": "_questionId",
          "type": "uint256"
        }
      ],
      "name": "getAnswersPerQuestion",
      "outputs": [
        {
          "internalType": "uint256[]",
          "name": "",
          "type": "uint256[]"
        }
      ],
      "stateMutability": "view",
      "type": "function"
    },
    {
      "inputs": [],
      "name": "getQuestions",
      "outputs": [
        {
          "components": [
            {
              "internalType": "uint256",
              "name": "questionId",
              "type": "uint256"
            },
            {
              "internalType": "string",
              "name": "message",
              "type": "string"
            },
            {
              "internalType": "address",
              "name": "creatorAddress",
              "type": "address"
            },
            {
              "internalType": "uint256",
              "name": "timestamp",
              "type": "uint256"
            }
          ],
          "internalType": "struct Forum.Question[]",
          "name": "",
          "type": "tuple[]"
        }
      ],
      "stateMutability": "view",
      "type": "function"
    },
    {
      "inputs": [
        {
          "internalType": "uint256",
          "name": "_answerId",
          "type": "uint256"
        }
      ],
      "name": "getUpvotes",
      "outputs": [
        {
          "internalType": "uint256",
          "name": "",
          "type": "uint256"
        }
      ],
      "stateMutability": "view",
      "type": "function"
    },
    {
      "inputs": [
        {
          "internalType": "uint256",
          "name": "_questionId",
          "type": "uint256"
        },
        {
          "internalType": "string",
          "name": "_message",
          "type": "string"
        }
      ],
      "name": "postAnswer",
      "outputs": [],
      "stateMutability": "nonpayable",
      "type": "function"
    },
    {
      "inputs": [
        {
          "internalType": "string",
          "name": "_message",
          "type": "string"
        }
      ],
      "name": "postQuestion",
      "outputs": [],
      "stateMutability": "nonpayable",
      "type": "function"
    },
    {
      "inputs": [
        {
          "internalType": "uint256",
          "name": "",
          "type": "uint256"
        }
      ],
      "name": "questions",
      "outputs": [
        {
          "internalType": "uint256",
          "name": "questionId",
          "type": "uint256"
        },
        {
          "internalType": "string",
          "name": "message",
          "type": "string"
        },
        {
          "internalType": "address",
          "name": "creatorAddress",
          "type": "address"
        },
        {
          "internalType": "uint256",
          "name": "timestamp",
          "type": "uint256"
        }
      ],
      "stateMutability": "view",
      "type": "function"
    },
    {
      "inputs": [
        {
          "internalType": "uint256",
          "name": "_answerId",
          "type": "uint256"
        }
      ],
      "name": "upvoteAnswer",
      "outputs": [],
      "stateMutability": "nonpayable",
      "type": "function"
    },
    {
      "inputs": [
        {
          "internalType": "uint256",
          "name": "",
          "type": "uint256"
        },
        {
          "internalType": "address",
          "name": "",
          "type": "address"
        }
      ],
      "name": "upvoters",
      "outputs": [
        {
          "internalType": "bool",
          "name": "",
          "type": "bool"
        }
      ],
      "stateMutability": "view",
      "type": "function"
    },
    {
      "inputs": [
        {
          "internalType": "address",
          "name": "",
          "type": "address"
        }
      ],
      "name": "usersUpvoteCount",
      "outputs": [
        {
          "internalType": "uint256",
          "name": "",
          "type": "uint256"
        }
      ],
      "stateMutability": "view",
      "type": "function"
    }
  ],
  "bytecode": "0x60a06040526012600a62000014919062000241565b600162000022919062000292565b6005556012600a62000035919062000241565b600a62000043919062000292565b6006553480156200005357600080fd5b50604051620025d5380380620025d583398181016040528101906200007991906200035d565b8073ffffffffffffffffffffffffffffffffffffffff1660808173ffffffffffffffffffffffffffffffffffffffff1681525050506200038f565b7f4e487b7100000000000000000000000000000000000000000000000000000000600052601160045260246000fd5b60008160011c9050919050565b6000808291508390505b600185111562000142578086048111156200011a5762000119620000b4565b5b60018516156200012a5780820291505b80810290506200013a85620000e3565b9450620000fa565b94509492505050565b6000826200015d576001905062000230565b816200016d576000905062000230565b81600181146200018657600281146200019157620001c7565b600191505062000230565b60ff841115620001a657620001a5620000b4565b5b8360020a915084821115620001c057620001bf620000b4565b5b5062000230565b5060208310610133831016604e8410600b8410161715620002015782820a905083811115620001fb57620001fa620000b4565b5b62000230565b620002108484846001620000f0565b925090508184048111156200022a5762000229620000b4565b5b81810290505b9392505050565b6000819050919050565b60006200024e8262000237565b91506200025b8362000237565b92506200028a7fffffffffffffffffffffffffffffffffffffffffffffffffffffffffffffffff84846200014b565b905092915050565b60006200029f8262000237565b9150620002ac8362000237565b9250817fffffffffffffffffffffffffffffffffffffffffffffffffffffffffffffffff0483118215151615620002e857620002e7620000b4565b5b828202905092915050565b600080fd5b600073ffffffffffffffffffffffffffffffffffffffff82169050919050565b60006200032582620002f8565b9050919050565b620003378162000318565b81146200034357600080fd5b50565b60008151905062000357816200032c565b92915050565b600060208284031215620003765762000375620002f3565b5b6000620003868482850162000346565b91505092915050565b608051612207620003ce600039600081816103970152818161081f0152818161090c015281816109fd01528181610acf0152610bab01526122076000f3fe608060405234801561001057600080fd5b50600436106100b45760003560e01c80637df88f24116100715780637df88f24146101bb57806397221ab7146101d757806398f42702146101f5578063a0376e8614610225578063be28341f14610255578063c921d66c14610285576100b4565b806317599cc5146100b95780632459d372146100ee57806331b1b9781461010c57806335677ad91461013f57806362bf6ffe1461016f5780637116cad81461019f575b600080fd5b6100d360048036038101906100ce91906112cc565b6102a1565b6040516100e5969594939291906113e2565b60405180910390f35b6100f6610395565b60405161010391906114a9565b60405180910390f35b610126600480360381019061012191906112cc565b6103b9565b60405161013694939291906114c4565b60405180910390f35b6101596004803603810190610154919061153c565b6104a1565b6040516101669190611569565b60405180910390f35b61018960048036038101906101849190611584565b6104b9565b60405161019691906115df565b60405180910390f35b6101b960048036038101906101b4919061165f565b6104e8565b005b6101d560048036038101906101d091906112cc565b610653565b005b6101df610db2565b6040516101ec9190611839565b60405180910390f35b61020f600480360381019061020a91906112cc565b610f0d565b60405161021c9190611569565b60405180910390f35b61023f600480360381019061023a91906112cc565b610f85565b60405161024c919061190a565b60405180910390f35b61026f600480360381019061026a919061192c565b610ff0565b60405161027c9190611569565b60405180910390f35b61029f600480360381019061029a919061196c565b611021565b005b600181815481106102b157600080fd5b90600052602060002090600602016000915090508060000154908060010154908060020160009054906101000a900473ffffffffffffffffffffffffffffffffffffffff1690806003018054610306906119fb565b80601f0160208091040260200160405190810160405280929190818152602001828054610332906119fb565b801561037f5780601f106103545761010080835404028352916020019161037f565b820191906000526020600020905b81548152906001019060200180831161036257829003601f168201915b5050505050908060040154908060050154905086565b7f000000000000000000000000000000000000000000000000000000000000000081565b600081815481106103c957600080fd5b90600052602060002090600402016000915090508060000154908060010180546103f2906119fb565b80601f016020809104026020016040519081016040528092919081815260200182805461041e906119fb565b801561046b5780601f106104405761010080835404028352916020019161046b565b820191906000526020600020905b81548152906001019060200180831161044e57829003601f168201915b5050505050908060020160009054906101000a900473ffffffffffffffffffffffffffffffffffffffff16908060030154905084565b60046020528060005260406000206000915090505481565b60036020528160005260406000206020528060005260406000206000915091509054906101000a900460ff1681565b6000808054905090506000604051806080016040528083815260200185858080601f016020809104026020016040519081016040528093929190818152602001838380828437600081840152601f19601f8201169050808301925050505050505081526020013373ffffffffffffffffffffffffffffffffffffffff16815260200142815250905060008190806001815401808255809150506001900390600052602060002090600402016000909190919091506000820151816000015560208201518160010190805190602001906105c29291906111e9565b5060408201518160020160006101000a81548173ffffffffffffffffffffffffffffffffffffffff021916908373ffffffffffffffffffffffffffffffffffffffff1602179055506060820151816003015550507f376a18caacbe57016421ef9c029b5cbc76833d5ee118741aced9f7b0d5080755816040516106459190611a90565b60405180910390a150505050565b80806001805490501161069b576040517f08c379a000000000000000000000000000000000000000000000000000000000815260040161069290611afe565b60405180910390fd5b6000600183815481106106b1576106b0611b1e565b5b90600052602060002090600602019050600115156003600085815260200190815260200160002060003373ffffffffffffffffffffffffffffffffffffffff1673ffffffffffffffffffffffffffffffffffffffff16815260200190815260200160002060009054906101000a900460ff1615151415610766576040517f08c379a000000000000000000000000000000000000000000000000000000000815260040161075d90611bbf565b60405180910390fd5b3373ffffffffffffffffffffffffffffffffffffffff166001848154811061079157610790611b1e565b5b906000526020600020906006020160020160009054906101000a900473ffffffffffffffffffffffffffffffffffffffff1673ffffffffffffffffffffffffffffffffffffffff16141561081a576040517f08c379a000000000000000000000000000000000000000000000000000000000815260040161081190611c2b565b60405180910390fd5b6005547f000000000000000000000000000000000000000000000000000000000000000073ffffffffffffffffffffffffffffffffffffffff166370a08231336040518263ffffffff1660e01b81526004016108769190611c4b565b60206040518083038186803b15801561088e57600080fd5b505afa1580156108a2573d6000803e3d6000fd5b505050506040513d601f19601f820116820180604052508101906108c69190611c7b565b1015610907576040517f08c379a00000000000000000000000000000000000000000000000000000000081526004016108fe90611cf4565b60405180910390fd5b6005547f000000000000000000000000000000000000000000000000000000000000000073ffffffffffffffffffffffffffffffffffffffff1663dd62ed3e33306040518363ffffffff1660e01b8152600401610965929190611d14565b60206040518083038186803b15801561097d57600080fd5b505afa158015610991573d6000803e3d6000fd5b505050506040513d601f19601f820116820180604052508101906109b59190611c7b565b10156109f6576040517f08c379a00000000000000000000000000000000000000000000000000000000081526004016109ed90611daf565b60405180910390fd5b60006006547f000000000000000000000000000000000000000000000000000000000000000073ffffffffffffffffffffffffffffffffffffffff166370a082318460020160009054906101000a900473ffffffffffffffffffffffffffffffffffffffff166040518263ffffffff1660e01b8152600401610a789190611c4b565b60206040518083038186803b158015610a9057600080fd5b505afa158015610aa4573d6000803e3d6000fd5b505050506040513d601f19601f82011682018060405250810190610ac89190611c7b565b10610ba9577f000000000000000000000000000000000000000000000000000000000000000073ffffffffffffffffffffffffffffffffffffffff166323b872dd338460020160009054906101000a900473ffffffffffffffffffffffffffffffffffffffff166005546040518463ffffffff1660e01b8152600401610b5093929190611dcf565b602060405180830381600087803b158015610b6a57600080fd5b505af1158015610b7e573d6000803e3d6000fd5b505050506040513d601f19601f82011682018060405250810190610ba29190611e32565b9050610c5d565b7f000000000000000000000000000000000000000000000000000000000000000073ffffffffffffffffffffffffffffffffffffffff166323b872dd33306005546040518463ffffffff1660e01b8152600401610c0893929190611dcf565b602060405180830381600087803b158015610c2257600080fd5b505af1158015610c36573d6000803e3d6000fd5b505050506040513d601f19601f82011682018060405250810190610c5a9190611e32565b90505b80610c9d576040517f08c379a0000000000000000000000000000000000000000000000000000000008152600401610c9490611eab565b60405180910390fd5b816005016000815480929190610cb290611efa565b9190505550600460003373ffffffffffffffffffffffffffffffffffffffff1673ffffffffffffffffffffffffffffffffffffffff1681526020019081526020016000206000815480929190610d0790611efa565b919050555060016003600086815260200190815260200160002060003373ffffffffffffffffffffffffffffffffffffffff1673ffffffffffffffffffffffffffffffffffffffff16815260200190815260200160002060006101000a81548160ff0219169083151502179055507f981efbd3888e53838a0e471c971b195676b7d47ce0aa1fe7398e3159ac9c145282604051610da49190612104565b60405180910390a150505050565b60606000805480602002602001604051908101604052809291908181526020016000905b82821015610f04578382906000526020600020906004020160405180608001604052908160008201548152602001600182018054610e13906119fb565b80601f0160208091040260200160405190810160405280929190818152602001828054610e3f906119fb565b8015610e8c5780601f10610e6157610100808354040283529160200191610e8c565b820191906000526020600020905b815481529060010190602001808311610e6f57829003601f168201915b505050505081526020016002820160009054906101000a900473ffffffffffffffffffffffffffffffffffffffff1673ffffffffffffffffffffffffffffffffffffffff1673ffffffffffffffffffffffffffffffffffffffff16815260200160038201548152505081526020019060010190610dd6565b50505050905090565b6000818060018054905011610f57576040517f08c379a0000000000000000000000000000000000000000000000000000000008152600401610f4e90611afe565b60405180910390fd5b60018381548110610f6b57610f6a611b1e565b5b906000526020600020906006020160050154915050919050565b606060026000838152602001908152602001600020805480602002602001604051908101604052809291908181526020018280548015610fe457602002820191906000526020600020905b815481526020019060010190808311610fd0575b50505050509050919050565b6002602052816000526040600020818154811061100c57600080fd5b90600052602060002001600091509150505481565b6000600180549050905060006040518060c001604052808381526020018681526020013373ffffffffffffffffffffffffffffffffffffffff16815260200185858080601f016020809104026020016040519081016040528093929190818152602001838380828437600081840152601f19601f820116905080830192505050505050508152602001428152602001600081525090506001819080600181540180825580915050600190039060005260206000209060060201600090919091909150600082015181600001556020820151816001015560408201518160020160006101000a81548173ffffffffffffffffffffffffffffffffffffffff021916908373ffffffffffffffffffffffffffffffffffffffff160217905550606082015181600301908051906020019061115a9291906111e9565b506080820151816004015560a082015181600501555050600260008681526020019081526020016000208290806001815401808255809150506001900390600052602060002001600090919091909150557f3cf697c933d5f6c91a562467f0ee88bd2ced5cda13703bce99632e92fd7fff73816040516111da91906121af565b60405180910390a15050505050565b8280546111f5906119fb565b90600052602060002090601f016020900481019282611217576000855561125e565b82601f1061123057805160ff191683800117855561125e565b8280016001018555821561125e579182015b8281111561125d578251825591602001919060010190611242565b5b50905061126b919061126f565b5090565b5b80821115611288576000816000905550600101611270565b5090565b600080fd5b600080fd5b6000819050919050565b6112a981611296565b81146112b457600080fd5b50565b6000813590506112c6816112a0565b92915050565b6000602082840312156112e2576112e161128c565b5b60006112f0848285016112b7565b91505092915050565b61130281611296565b82525050565b600073ffffffffffffffffffffffffffffffffffffffff82169050919050565b600061133382611308565b9050919050565b61134381611328565b82525050565b600081519050919050565b600082825260208201905092915050565b60005b83811015611383578082015181840152602081019050611368565b83811115611392576000848401525b50505050565b6000601f19601f8301169050919050565b60006113b482611349565b6113be8185611354565b93506113ce818560208601611365565b6113d781611398565b840191505092915050565b600060c0820190506113f760008301896112f9565b61140460208301886112f9565b611411604083018761133a565b818103606083015261142381866113a9565b905061143260808301856112f9565b61143f60a08301846112f9565b979650505050505050565b6000819050919050565b600061146f61146a61146584611308565b61144a565b611308565b9050919050565b600061148182611454565b9050919050565b600061149382611476565b9050919050565b6114a381611488565b82525050565b60006020820190506114be600083018461149a565b92915050565b60006080820190506114d960008301876112f9565b81810360208301526114eb81866113a9565b90506114fa604083018561133a565b61150760608301846112f9565b95945050505050565b61151981611328565b811461152457600080fd5b50565b60008135905061153681611510565b92915050565b6000602082840312156115525761155161128c565b5b600061156084828501611527565b91505092915050565b600060208201905061157e60008301846112f9565b92915050565b6000806040838503121561159b5761159a61128c565b5b60006115a9858286016112b7565b92505060206115ba85828601611527565b9150509250929050565b60008115159050919050565b6115d9816115c4565b82525050565b60006020820190506115f460008301846115d0565b92915050565b600080fd5b600080fd5b600080fd5b60008083601f84011261161f5761161e6115fa565b5b8235905067ffffffffffffffff81111561163c5761163b6115ff565b5b60208301915083600182028301111561165857611657611604565b5b9250929050565b600080602083850312156116765761167561128c565b5b600083013567ffffffffffffffff81111561169457611693611291565b5b6116a085828601611609565b92509250509250929050565b600081519050919050565b600082825260208201905092915050565b6000819050602082019050919050565b6116e181611296565b82525050565b600082825260208201905092915050565b600061170382611349565b61170d81856116e7565b935061171d818560208601611365565b61172681611398565b840191505092915050565b61173a81611328565b82525050565b600060808301600083015161175860008601826116d8565b506020830151848203602086015261177082826116f8565b91505060408301516117856040860182611731565b50606083015161179860608601826116d8565b508091505092915050565b60006117af8383611740565b905092915050565b6000602082019050919050565b60006117cf826116ac565b6117d981856116b7565b9350836020820285016117eb856116c8565b8060005b85811015611827578484038952815161180885826117a3565b9450611813836117b7565b925060208a019950506001810190506117ef565b50829750879550505050505092915050565b6000602082019050818103600083015261185381846117c4565b905092915050565b600081519050919050565b600082825260208201905092915050565b6000819050602082019050919050565b600061189383836116d8565b60208301905092915050565b6000602082019050919050565b60006118b78261185b565b6118c18185611866565b93506118cc83611877565b8060005b838110156118fd5781516118e48882611887565b97506118ef8361189f565b9250506001810190506118d0565b5085935050505092915050565b6000602082019050818103600083015261192481846118ac565b905092915050565b600080604083850312156119435761194261128c565b5b6000611951858286016112b7565b9250506020611962858286016112b7565b9150509250929050565b6000806000604084860312156119855761198461128c565b5b6000611993868287016112b7565b935050602084013567ffffffffffffffff8111156119b4576119b3611291565b5b6119c086828701611609565b92509250509250925092565b7f4e487b7100000000000000000000000000000000000000000000000000000000600052602260045260246000fd5b60006002820490506001821680611a1357607f821691505b60208210811415611a2757611a266119cc565b5b50919050565b6000608083016000830151611a4560008601826116d8565b5060208301518482036020860152611a5d82826116f8565b9150506040830151611a726040860182611731565b506060830151611a8560608601826116d8565b508091505092915050565b60006020820190508181036000830152611aaa8184611a2d565b905092915050565b7f416e7377657220646f6573206e6f742065786973742100000000000000000000600082015250565b6000611ae8601683611354565b9150611af382611ab2565b602082019050919050565b60006020820190508181036000830152611b1781611adb565b9050919050565b7f4e487b7100000000000000000000000000000000000000000000000000000000600052603260045260246000fd5b7f5573657220616c7265616479207570766f746564207468697320616e7377657260008201527f2100000000000000000000000000000000000000000000000000000000000000602082015250565b6000611ba9602183611354565b9150611bb482611b4d565b604082019050919050565b60006020820190508181036000830152611bd881611b9c565b9050919050565b7f43616e6e6f74207570766f7465206f776e20616e737765722100000000000000600082015250565b6000611c15601983611354565b9150611c2082611bdf565b602082019050919050565b60006020820190508181036000830152611c4481611c08565b9050919050565b6000602082019050611c60600083018461133a565b92915050565b600081519050611c75816112a0565b92915050565b600060208284031215611c9157611c9061128c565b5b6000611c9f84828501611c66565b91505092915050565b7f557365722068617320696e73756666696369656e742062616c616e6365210000600082015250565b6000611cde601e83611354565b9150611ce982611ca8565b602082019050919050565b60006020820190508181036000830152611d0d81611cd1565b9050919050565b6000604082019050611d29600083018561133a565b611d36602083018461133a565b9392505050565b7f4163636f756e7420646964206e6f7420617070726f766520746f6b656e20737560008201527f6363657366756c6c792100000000000000000000000000000000000000000000602082015250565b6000611d99602a83611354565b9150611da482611d3d565b604082019050919050565b60006020820190508181036000830152611dc881611d8c565b9050919050565b6000606082019050611de4600083018661133a565b611df1602083018561133a565b611dfe60408301846112f9565b949350505050565b611e0f816115c4565b8114611e1a57600080fd5b50565b600081519050611e2c81611e06565b92915050565b600060208284031215611e4857611e4761128c565b5b6000611e5684828501611e1d565b91505092915050565b7f546f6b656e207472616e73666572206661696c65642100000000000000000000600082015250565b6000611e95601683611354565b9150611ea082611e5f565b602082019050919050565b60006020820190508181036000830152611ec481611e88565b9050919050565b7f4e487b7100000000000000000000000000000000000000000000000000000000600052601160045260246000fd5b6000611f0582611296565b91507fffffffffffffffffffffffffffffffffffffffffffffffffffffffffffffffff821415611f3857611f37611ecb565b5b600182019050919050565b60008160001c9050919050565b6000819050919050565b6000611f6d611f6883611f43565b611f50565b9050919050565b600073ffffffffffffffffffffffffffffffffffffffff82169050919050565b6000611fa7611fa283611f43565b611f74565b9050919050565b60008190508160005260206000209050919050565b60008154611fd0816119fb565b611fda81866116e7565b94506001821660008114611ff557600181146120075761203a565b60ff198316865260208601935061203a565b61201085611fae565b60005b8381101561203257815481890152600182019150602081019050612013565b808801955050505b50505092915050565b600060c08301600080840154905061205a81611f5a565b61206760008701826116d8565b506001840154905061207881611f5a565b61208560208701826116d8565b506002840154905061209681611f94565b6120a36040870182611731565b506003840185830360608701526120ba8382611fc3565b925050600484015490506120cd81611f5a565b6120da60808701826116d8565b50600584015490506120eb81611f5a565b6120f860a08701826116d8565b50819250505092915050565b6000602082019050818103600083015261211e8184612043565b905092915050565b600060c08301600083015161213e60008601826116d8565b50602083015161215160208601826116d8565b5060408301516121646040860182611731565b506060830151848203606086015261217c82826116f8565b915050608083015161219160808601826116d8565b5060a08301516121a460a08601826116d8565b508091505092915050565b600060208201905081810360008301526121c98184612126565b90509291505056fea2646970667358221220d10de331bcb394b05c115e7f5951f52369f6b035f98314bb0f4b362065a338ea64736f6c63430008090033",
  "linkReferences": {},
  "deployedLinkReferences": {}
}